:020000020000FC
:040000000C94E1017A
:040044000C94FD0219
:1000A8000C940E030F932F933F93009132000F7D12
:1000B80024FD00620093340000912C00077F25FD89
:1000C800086000932E0000910001077F26FD08605C
:1000D80000930201009100010F7E27FD006100934B
:1000E80002010091000100640093020131E00E94C6
:1000F800A401009100010F7B009302013F912F9111
:100108000F9108952F933F930F93DF93CF93DEB70B
:10011800CDB729850E94560032E30E94A40122959A
:100128000E94560032E30E94A401CF91DF910F9103
:100138003F912F9108950F933F932F93DF93CF9380
:10014800DEB7CDB72985009100010F7D009302012C
:100158002F930E9486002F91243018F432E00E94D9
:10016800AE01CF91DF912F913F910F9108950F9399
:100178002F93DF93CF93DEB7CDB728850091000189
:100188000062009302012F930E9486002F91009134
:100198000102039500930102CF91DF912F910F91F6
:1001A80008950F931F93DF93CF93FF93EF93DEB7D9
:1001B800CDB7FB85EA851191103029F01F930E9475
:1001C800BB001F91F8CFEF91FF91CF91DF911F9165
:1001D8000F9108950F931F93DF93CF93DEB7CDB799
:1001E8000885198511301CF011E00C94FE000F30C1
:1001F8000CF00FE01093000200930102113019F483
:1002080010EC0C94080110E8010F0F930E949F0056
:100218000F91CF91DF911F910F9108950F9301E0F6
:100228000F930E949F000F910027009300020093F4
:1002380001020F9108950F932F933F93009133007C
:10024800006200933300009132000F7D0093340068
:1002580000912D00086000932D0000912C00077F6D
:1002680000932E00009101010860009301010091A4
:100278000001077F009302010091010100610093D2
:100288000101009100010F7E00930201009101011C
:10029800006200930101009100010F7D00930201AB
:1002A80000910101006400930101009100010F7B9E
:1002B800009302013FE00E94AE0135E00E94AE01CA
:1002C80020E30E94560035E00E94AE0120E30E9420
:1002D800560057E03FE00E94AE015A95D9F720E357
:1002E8000E94560032E30E94A40120E20E945600B8
:1002F80032E30E94A40108E20F930E949F000F912D
:1003080008E00F930E949F000F9101E00F930E9455
:100318009F000F9132E00E94AE0106E00F930E9409
:100328009F000F910CE00F930E949F000F910027F0
:1003380000930002009301023F912F910F910895BD
:100348000F933F9305E00A95F1F73A95D9F73F9156
:100358000F9108950F931F933F93DF93CF930DEF62
:10036800309F012D0295007FD02F002D0295102F70
:10037800007F1F70C02FD12B2197F1F7CF91DF910C
:100388003F911F910F9108950F93FF93EF93BF93A0
:10039800AF93DF93CF93DEB7CDB7EB85FC85AD8503
:1003A800BE85059100300D93E1F7CF91DF91AF91B4
:1003B800BF91EF91FF910F91089507E800937A009C
:1003C80000E400937C000EE10093890005E80093A7
:1003D800880000E0009380000DE00093810002E0B7
:1003E80000936F0006E0009399000BE100939800DA
:1003F80000E0009390000DE00093910000E000936E
:10040800A9000CE90093A80000E00093A0000DE00B
:100418000093A10002E00093720078940CDF11E2CF
:100428000FEF1EBF0DBF002711274F9340E04093E9
:100438001702409318024F9100270093050208B352
:1004480001FFFDCF02E008BB30D052D00F931F93BD
:1004580010911502113099F401E010E00F931F93E9
:10046800B9DE1F910F911F910F910AE20F937FDE62
:100478007EDE7DDE7CDE7BDE7ADE0F9114C00F939C
:100488001F9301E010E00F931F93A4DE1F910F91BB
:100498001F910F9100E20F936ADE69DE68DE67DE66
:1004A80066DE65DE0F91CBCFFFCF0F931F9300E081
:1004B8001EE00F931F938EDE1F910F910091020291
:1004C800013059F000E20F9352DE0F9100E20F93D2
:1004D8004EDE0F910F911F9108950CE30F9347DEA5
:1004E8000F910EE30F9343DE0F910F911F91089523
:1004F8000F931F93BF93AF9301E01BE00F931F93DC
:1005080069DE0F911F91B2E0A7E10D911C911F9335
:100518000F9312E01F9305E00F9322D00F911F91C4
:100528000F911F91009105020F9321DE0F91009109
:1005380006020F931CDE0F91009107020F9317DE3E
:100548000F91009108020F9312DE0F91009109029A
:100558000F930DDE0F91AF91BF911F910F910895E9
:100568000F931F932F938F934F935F936F937F9363
:10057800DF93CF93FF93EF93DEB7CDB70B891A893B
:100588000F776627552770E34427503019F480E128
:1005980027E211C0513019F488EE23E00CC0523024
:1005A80019F484E620E007C0533019F48AE020E00B
:1005B80002C0412F07C04395181B020BE2F74A956A
:1005C800180F021FF989E889E50FF61F470F4083C6
:1005D8005395553009F0D8CFEF91FF91CF91DF9126
:1005E8007F916F915F914F918F912F911F910F91F3
:1005F80008950F931F930FB70F93009102021F9353
:1006080011E00127009302020FBF1F910F911F9164
:100618000F911895FF93EF930F931F932F933F9389
:10062800FEB7EDB70FB70F9300917A0000640093FF
:100638007A0000917A000074E1F7009115020093A6
:10064800160200917900033020F00027009315026C
:1006580013C001E00093150210911602011761F012
:1006680021E03327E0911702F0911802E20FF31FFF
:10067800E0931702F09318020F910FBF3F912F914B
:0A0688001F910F91EF91FF9118955B
:00000001FF
