:020000020000FC
:10000000F3E0E0E000E3019307E3019300E30193F1
:100010000027008311E20FEF1EBF0DBF1FEF1093EB
:10002000240010930A0110E202EE1F930F9312E0D6
:1000300000E01F930F93E5D00F910F910F910F9157
:1000400023E012E000E01F930F9304D02A952223AF
:10005000C1F7FFCFEF93FF93CF93DF933F93DEB7CB
:10006000CDB7FA85E9850F933191303021F0032F18
:1000700009D00027F9CF0F913F91DF91CF91FF91E8
:10008000EF9108959F937F935F934F936F93992779
:1000900077275527442766274427402F513029F0DA
:1000A0005395407F4295942FF7CF55274F70742F6B
:1000B00044279F3031F47F3021F49BD006D105D105
:1000C00004D10F9306E0903009F45AC0913019F032
:1000D0009230A9F041F5691709F452C0639570FB9D
:1000E00050F9771F5170513029F051D0F2D081D0A2
:1000F000ECD0F1CF4CD0E9D07CD0E7D0ECCF691771
:1001000009F43EC0639571FB50F9771F517051306F
:1001100029F03DD0DED06DD0D8D0F1CF38D0D5D0B9
:1001200068D0D3D0ECCF933019F09430A9F028C028
:10013000691709F425C0639572FB50F9771F517058
:10014000513029F024D0C5D054D0BFD0F1CF1FD02A
:10015000BCD04FD0BAD0ECCF691709F411C0639569
:1001600073FB50F9771F5170513029F010D0B1D086
:1001700040D0ABD0F1CF0BD0A8D03BD0A6D0ECCFA5
:100180000F916F914F915F917F919F9108958F9300
:10019000013059F0023071F0033089F00430A1F0E1
:1001A0000530B9F00630E9F0089582E080930B0144
:1001B0008F9108958AE080930B018F9108958AE2D0
:1001C00080930B018F9108958AEA80930B018F91A0
:1001D00008958AEA80930B0182E0809325008F9135
:1001E00008958AEA80930B011AE0809325008F918D
:1001F00008958F9380E080930B01809325008F9169
:100200000895EF93FF93CF93DF931F93BF93AF9323
:100210000F920024DEB7CDB7FF85EE85BD85AC8596
:1002200015911F930DD01F910D9200241030C1F72E
:100230000F90AF91BF911F91DF91CF91FF91EF91FF
:10024000EF93FF93CF93DF939F933F931F934F932E
:100250005F93DEB7CDB79D85E0E0F0E2112755272B
:1002600051E0903219F49FEF092E25C03591931774
:1002700011F03796FBCF3591303069F013953E324F
:1002800011F03D3221F051FB43F9441FF4CF50FBF4
:1002900043F9441FF0CF13FB07F812FB06F811FBDC
:1002A00005F810FB04F847FB03F846FB02F845FB92
:1002B00001F844FB00F85F914F911F913F919F918E
:1002C000DF91CF91FF91EF91089505D004D003D035
:1002D000089501D0089501D008950F931F932F938F
:1002E00008E00A9539F01FEF1A95D9F32FEF2A95F8
:0C02F000D9F3FDCF2F911F910F910895BD
:10200000612E2D0000000000622D2E2E2E000000FB
:10201000632D2E2D2E000000642D2E2E00000000BA
:10202000652E000000000000662E2E2D2E00000000
:10203000672D2D2E00000000682E2E2E2E00000091
:10204000692E2E00000000006A2E2D2D2D000000AC
:102050006B2D2E2D000000006C2E2D2E2E0000006A
:102060006D2D2D00000000006E2D2E0000000000E0
:102070006F2D2D2D00000000702E2D2D2E00000044
:10208000712D2D2E2D000000722E2D2E000000002F
:10209000732E2E2E00000000742D000000000000A2
:1020A000752E2E2D00000000762E2E2E2D00000005
:1020B000772E2D2D00000000782D2E2E2D000000F3
:1020C000792D2E2D2D0000007A2D2D2E2E000000B2
:1020D0000000000000000000612061206100736FBB
:1020E00073006120626F7800646169727920717594
:1020F00065656E00746865207368617065206F6641
:102100002077617465720000746F702067756E20AF
:102110006D6176657269636B00006F62692077613B
:102120006E206B656E6F626900006F682063616E80
:10213000616461206F7572206F776E20616E64201C
:102140006E6174697665206C616E640069732074D9
:1021500068617420796F75722066696E616C2061A8
:102160006E73776572007768617420676F642068AA
:0C2170006174682077726F7567687400F6
:00000001FF
