S013000061345F635F636F64696E672E73726563E7
S113000071C000008EC000008CC000008AC00000D7
S113001088C0000086C0000084C0000082C00000C8
S113002080C000007EC000007CC000007AC00000D8
S113003078C0000076C0000074C0000072C00000E8
S113004070C000006FC000006CC000006AC00000F7
S113005068C0000066C0000064C0000062C0000008
S113006060C000005EC000005CC000005AC0000018
S113007058C0000056C0000054C0000052C0000028
S113008076C000004EC000004CC000004AC0000012
S113009048C0000046C0000044C0000042C0000048
S11300A040C000003EC000003CC000003AC0000058
S11300B038C0000036C0000034C0000032C0000068
S11300C030C000002EC000002CC000002AC0000078
S11300D028C0000026C0000024C0000022C0000088
S11300E020C0000011241FBECFEFD1E2DEBFCDBF80
S11300F000E00CBF13E0A0E0B2E0EAE6F7E000E0C5
S11301000BBF02C007900D92A23BB107D9F723E0C1
S1130110A2EBB3E001C01D92AA3BB207E1F7A5D15F
S113012022C36ECF1F920F920FB60F9211248F939A
S11301309F93AF93BF938091B6039091B703A0911F
S1130140B803B091B9030196A11DB11D8093B60304
S11301509093B703A093B803B093B903BF91AF9141
S11301609F918F910F900FBE0F901F9018951F9223
S11301700F920FB60F9211248F939F93AF93BF9357
S11301808091B2039091B303A091B403B091B503ED
S11301900596A11DB11D8093B2039093B303A09360
S11301A0B403B093B503BF91AF919F918F910F901A
S11301B00FBE0F901F901895811110C0613031F45B
S11301C0EBE0F1E0808180688083089561118FC045
S11301D0EBE0F1E080818F7780830895813081F4B2
S11301E0613031F4EBE0F1E0808180628083089536
S11301F061117DC0EBE0F1E080818F7D8083089503
S1130200823081F4613031F4EBE0F1E08081886088
S11302108083089561116BC0EBE0F1E08081877FFA
S113022080830895833081F4613031F4EBE0F1E0B0
S11302308081826080830895611159C0EBE0F1E010
S113024080818D7F808308958F3011F56F3079F42C
S1130250EBE0F1E08081806880838081806280832C
S113026080818860808380818260808308956111A9
S11302703EC0EBE0F1E080818F77808380818F7DC9
S113028080838081877F808380818D7F80830895B0
S11302908332B1F4611109C0EBE0F1E08081877F22
S11302A0808380818F7D80830895613001F5EBE048
S11302B0F1E08081886080838081806280830895FA
S11302C08431A9F4613049F4EBE0F1E08081806885
S11302D080838081826080830895611108C0EBE08F
S11302E0F1E080818F77808380818D7F8083089582
S11302F02F923F924F925F926F927F928F929F9232
S1130300AF92BF92CF92DF92EF92FF920F931F931F
S1130310CF93DF93CDB7DEB7CA56D1400FB6F8946A
S1130320DEBF0FBECDBF88E7ECE4F2E0DE0111963C
S113033001900D928A95E1F788E7E4ECF2E0DE01A2
S1130340A758BF4F01900D928A95E1F786E7ECE339
S1130350F3E0DE01AF50BF4F01900D928A95E1F7B3
S11303608E0107581F4FCE0101965C01FE01EF502C
S1130370FF4F1F014F0144244394512C0F2EF0E9E9
S11303806F2E77247394F02DF80160810E5F1F4F58
S1130390F5018081F2E0AF0EB11C0EDFF101619135
S11303A071911F01072E000C880B990BC5D0C959F8
S11303B0DE4F688379838A839B83C756D14020E0CC
S11303C030E04AE755E444D16B017C0120E030E0A1
S11303D040E85FE37FD088232CF120E03FEF4FE734
S11303E057E4C701B60130D11816C4F420E030E058
S11303F040E251E4C959DE4F688179818A819B8149
S1130400C756D14025D16AD06115710581F0C30169
S11304100197F1F761507109D1F709C0C701B6011D
S11304205DD002C0642D752DCB010197F1F708153D
S1130430190509F0A9CFC659DE4F0FB6F894DEBFEF
S11304400FBECDBFDF91CF911F910F91FF90EF9021
S1130450DF90CF90BF90AF909F908F907F906F90E0
S11304605F904F903F902F900895F89482E090E031
S1130470909389008093880010928000E1E8F0E076
S11304801082808188608083808182608083808103
S113049081608083EFE6F0E080818260808384EC79
S11304A099E0909399008093980010929000E1E96C
S11304B0F0E0108280818860808380818260808304
S11304C0E1E7F0E0808182608083789411DF80E04E
S11304D090E008956CD008F481E0089594D088F0F9
S11304E09F5790F0B92F9927B751A0F0D1F0660F1C
S11304F0771F881F991F1AF0BA95C9F712C0B13037
S113050081F09BD0B1E0089598C0672F782F882799
S1130510B85F39F0B93FCCF3869577956795B39575
S1130520D9F73EF490958095709561957F4F8F4FE4
S11305309F4F0895E89409C097FB3EF490958095E9
S1130540709561957F4F8F4F9F4F9923A9F0F92F95
S113055096E9BB279395F695879577956795B79513
S1130560F111F8CFFAF4BB0F11F460FF1BC06F5FF9
S11305707F4F8F4F9F4F16C0882311F096E911C00B
S1130580772321F09EE8872F762F05C0662371F02C
S113059096E8862F70E060E02AF09A95660F771F40
S11305A0881FDAF7880F9695879597F90895990F1C
S11305B00008550FAA0BE0E8FEEF16161706E80729
S11305C0F907C0F012161306E407F50798F0621B4A
S11305D0730B840B950B39F40A2661F0232B242B1F
S11305E0252B21F408950A2609F4A140A6958FEF3E
S11305F0811D811D089557FD9058440F551F59F0D2
S11306005F3F71F04795880F97FB991F61F09F3FFB
S113061079F087950895121613061406551FF2CF24
S11306204695F1DF08C0161617061806991FF1CF74
S113063086957105610508940895E894BB2766279B
S11306407727CB0197F90895B2DF08F48FEF089567
S11306500BD078C069D028F06ED018F0952309F03B
S11306605AC05FC01124EACFC6DFA0F3959FD1F32F
S1130670950F50E0551F629FF001729FBB27F00D4C
S1130680B11D639FAA27F00DB11DAA1F649F6627A1
S1130690B00DA11D661F829F2227B00DA11D621FF0
S11306A0739FB00DA11D621F839FA00D611D221FAA
S11306B0749F3327A00D611D231F849F600D211D8E
S11306C0822F762F6A2F11249F5750408AF0E1F031
S11306D088234AF0EE0FFF1FBB1F661F771F881F7A
S11306E091505040A9F79E3F510570F014C0A6CF19
S11306F05F3FECF3983EDCF3869577956795B79565
S1130700F795E7959F5FC1F7FE2B880F911D96958E
S1130710879597F9089597F99F6780E870E060E0FE
S113072008959FEF80EC089500240A941616170686
S113073018060906089500240A94121613061406CE
S113074005060895092E0394000C11F4882352F031
S1130750BB0F40F4BF2B11F460FF04C06F5F7F4FE9
S10D07608F4F9F4F0895F894FFCFC8
S113076A0100000001000000010000000F00000069
S113077A0F0000000F00000001000000010000004B
S113078A0100000000006400FA006400FA0064003A
S113079AF401FA00FA00FA00FA00FA00F40164001B
S11307AAFA006400FA006400FA00FA000F000F006D
S11307BA0F000F000F000F00230023001400140081
S11307CA0F000F000F000F000F000F001400140099
S11307DA23002300030003000200020001000100B9
S11307EA00000000000000000100010002000200F5
S11307FA03000300030003000200020001000100D9
S113080A00000000000000000100010002000200D4
S113081A030003000F000F000F000F002300230042
S113082A230023000F0000000F0000000F00000047
S113083A01000000010000000F0000000F0000008A
S113084A0F00000001000000010000000100000088
S113085A0100000001000000010000000100000086
S113086A0100000001000000010000000100000076
S113087A0100000001000000010000000100000066
S113088A0100000001000000010000000F00000048
S113089A0F0000000100000001000000960096000D
S11308AA9600960096006400640064006400640084
S11308BA9600960096009600960064006400640010
S11308CA64006400960096009600960096009600CE
S11308DA960096009600960096009600960096005A
S11308EA960096009600960096009600960096004A
S11308FA960096009600960096009600960096003A
S113090A9600960096009600960096009600960029
S105091A960041
S9030000FC
